{"abi":[{"type":"constructor","inputs":[{"name":"priceFeed","type":"address","internalType":"address"}],"stateMutability":"nonpayable"},{"type":"function","name":"MINIMUM_USD","inputs":[],"outputs":[{"name":"","type":"uint256","internalType":"uint256"}],"stateMutability":"view"},{"type":"function","name":"fund","inputs":[],"outputs":[],"stateMutability":"payable"},{"type":"function","name":"getAddressToAmountFunded","inputs":[{"name":"fundingAddress","type":"address","internalType":"address"}],"outputs":[{"name":"","type":"uint256","internalType":"uint256"}],"stateMutability":"view"},{"type":"function","name":"getAllFundersWithAddress","inputs":[],"outputs":[{"name":"","type":"uint256[]","internalType":"uint256[]"}],"stateMutability":"view"},{"type":"function","name":"getEthInSmartContract","inputs":[],"outputs":[{"name":"","type":"uint256","internalType":"uint256"}],"stateMutability":"view"},{"type":"function","name":"getFunder","inputs":[{"name":"index","type":"uint256","internalType":"uint256"}],"outputs":[{"name":"","type":"address","internalType":"address"}],"stateMutability":"view"},{"type":"function","name":"getFunderAddressArray","inputs":[],"outputs":[{"name":"","type":"address[]","internalType":"address[]"}],"stateMutability":"view"},{"type":"function","name":"getOwner","inputs":[],"outputs":[{"name":"","type":"address","internalType":"address"}],"stateMutability":"view"},{"type":"function","name":"getPriceFeed","inputs":[],"outputs":[{"name":"","type":"address","internalType":"contract AggregatorV3Interface"}],"stateMutability":"view"},{"type":"function","name":"withdraw","inputs":[],"outputs":[],"stateMutability":"nonpayable"},{"type":"error","name":"FundMe__NotOwner","inputs":[]}],"bytecode":{"object":"0x60a060405234801561001057600080fd5b5060405161079f38038061079f83398101604081905261002f91610058565b600280546001600160a01b0319166001600160a01b039290921691909117905533608052610088565b60006020828403121561006a57600080fd5b81516001600160a01b038116811461008157600080fd5b9392505050565b6080516106ee6100b160003960008181610179015281816102d0015261038701526106ee6000f3fe6080604052600436106100915760003560e01c80636b69a592116100595780636b69a5921461014d578063893d20e81461016a5780639e87a5cd146101b1578063b60d4288146101cf578063d7b4750c146101d757600080fd5b80630343fb251461009657806322a20538146100df578063340b661b146101015780633ccfd60b146101145780636777deac1461012b575b600080fd5b3480156100a257600080fd5b506100cc6100b1366004610576565b6001600160a01b031660009081526001602052604090205490565b6040519081526020015b60405180910390f35b3480156100eb57600080fd5b506100f46101f7565b6040516100d691906105a6565b34801561010d57600080fd5b50476100cc565b34801561012057600080fd5b506101296102c5565b005b34801561013757600080fd5b50610140610406565b6040516100d691906105ea565b34801561015957600080fd5b506100cc6802b5e3af16b188000081565b34801561017657600080fd5b507f00000000000000000000000000000000000000000000000000000000000000005b6040516001600160a01b0390911681526020016100d6565b3480156101bd57600080fd5b506002546001600160a01b0316610199565b610129610468565b3480156101e357600080fd5b506101996101f236600461062b565b6104cd565b600080546060919067ffffffffffffffff81111561021757610217610644565b604051908082528060200260200182016040528015610240578160200160208202803683370190505b50905060005b6000548110156102bf5760008082815481106102645761026461065a565b60009182526020808320909101546001600160a01b031680835260019091526040909120548451919250908490849081106102a1576102a161065a565b602090810291909101015250806102b781610686565b915050610246565b50919050565b336001600160a01b037f0000000000000000000000000000000000000000000000000000000000000000161461030e5760405163579610db60e01b815260040160405180910390fd5b60005b60005481101561036457600080828154811061032f5761032f61065a565b60009182526020808320909101546001600160a01b03168252600190526040812055508061035c81610686565b915050610311565b506040805160008082526020820192839052905161038292906104fc565b5060007f00000000000000000000000000000000000000000000000000000000000000006001600160a01b03164760405160006040518083038185875af1925050503d80600081146103f0576040519150601f19603f3d011682016040523d82523d6000602084013e6103f5565b606091505b505090508061040357600080fd5b50565b6060600080548060200260200160405190810160405280929190818152602001828054801561045e57602002820191906000526020600020905b81546001600160a01b03168152600190910190602001808311610440575b5050505050905090565b336000908152600160205260408120805434929061048790849061069f565b9091555050600080546001810182559080527f290decd9548b62a8d60345a988386fc84ba6bc95484008f6362f93160ef3e5630180546001600160a01b03191633179055565b60008082815481106104e1576104e161065a565b6000918252602090912001546001600160a01b031692915050565b828054828255906000526020600020908101928215610551579160200282015b8281111561055157825182546001600160a01b0319166001600160a01b0390911617825560209092019160019091019061051c565b5061055d929150610561565b5090565b5b8082111561055d5760008155600101610562565b60006020828403121561058857600080fd5b81356001600160a01b038116811461059f57600080fd5b9392505050565b6020808252825182820181905260009190848201906040850190845b818110156105de578351835292840192918401916001016105c2565b50909695505050505050565b6020808252825182820181905260009190848201906040850190845b818110156105de5783516001600160a01b031683529284019291840191600101610606565b60006020828403121561063d57600080fd5b5035919050565b634e487b7160e01b600052604160045260246000fd5b634e487b7160e01b600052603260045260246000fd5b634e487b7160e01b600052601160045260246000fd5b60006001820161069857610698610670565b5060010190565b808201808211156106b2576106b2610670565b9291505056fea2646970667358221220ba603433fcda8fd69cd5286882bdc961cd931926c440b95dcfc4c30237ca303364736f6c63430008120033","linkReferences":{}},"methodIdentifiers":{"MINIMUM_USD()":"6b69a592","fund()":"b60d4288","getAddressToAmountFunded(address)":"0343fb25","getAllFundersWithAddress()":"22a20538","getEthInSmartContract()":"340b661b","getFunder(uint256)":"d7b4750c","getFunderAddressArray()":"6777deac","getOwner()":"893d20e8","getPriceFeed()":"9e87a5cd","withdraw()":"3ccfd60b"},"id":21}